{
  "_format": "hh-sol-artifact-1",
  "contractName": "SmartImoveis",
  "sourceName": "contracts/smartImoveis/SmartImoveis.sol",
  "abi": [
    {
      "inputs": [
        {
          "internalType": "address",
          "name": "_tokenAddress",
          "type": "address"
        }
      ],
      "stateMutability": "nonpayable",
      "type": "constructor"
    },
    {
      "inputs": [],
      "name": "AccessControlBadConfirmation",
      "type": "error"
    },
    {
      "inputs": [
        {
          "internalType": "address",
          "name": "account",
          "type": "address"
        },
        {
          "internalType": "bytes32",
          "name": "neededRole",
          "type": "bytes32"
        }
      ],
      "name": "AccessControlUnauthorizedAccount",
      "type": "error"
    },
    {
      "inputs": [
        {
          "internalType": "address",
          "name": "sender",
          "type": "address"
        },
        {
          "internalType": "uint256",
          "name": "tokenId",
          "type": "uint256"
        },
        {
          "internalType": "address",
          "name": "owner",
          "type": "address"
        }
      ],
      "name": "ERC721IncorrectOwner",
      "type": "error"
    },
    {
      "inputs": [
        {
          "internalType": "address",
          "name": "operator",
          "type": "address"
        },
        {
          "internalType": "uint256",
          "name": "tokenId",
          "type": "uint256"
        }
      ],
      "name": "ERC721InsufficientApproval",
      "type": "error"
    },
    {
      "inputs": [
        {
          "internalType": "address",
          "name": "approver",
          "type": "address"
        }
      ],
      "name": "ERC721InvalidApprover",
      "type": "error"
    },
    {
      "inputs": [
        {
          "internalType": "address",
          "name": "operator",
          "type": "address"
        }
      ],
      "name": "ERC721InvalidOperator",
      "type": "error"
    },
    {
      "inputs": [
        {
          "internalType": "address",
          "name": "owner",
          "type": "address"
        }
      ],
      "name": "ERC721InvalidOwner",
      "type": "error"
    },
    {
      "inputs": [
        {
          "internalType": "address",
          "name": "receiver",
          "type": "address"
        }
      ],
      "name": "ERC721InvalidReceiver",
      "type": "error"
    },
    {
      "inputs": [
        {
          "internalType": "address",
          "name": "sender",
          "type": "address"
        }
      ],
      "name": "ERC721InvalidSender",
      "type": "error"
    },
    {
      "inputs": [
        {
          "internalType": "uint256",
          "name": "tokenId",
          "type": "uint256"
        }
      ],
      "name": "ERC721NonexistentToken",
      "type": "error"
    },
    {
      "anonymous": false,
      "inputs": [
        {
          "indexed": true,
          "internalType": "address",
          "name": "owner",
          "type": "address"
        },
        {
          "indexed": true,
          "internalType": "address",
          "name": "approved",
          "type": "address"
        },
        {
          "indexed": true,
          "internalType": "uint256",
          "name": "tokenId",
          "type": "uint256"
        }
      ],
      "name": "Approval",
      "type": "event"
    },
    {
      "anonymous": false,
      "inputs": [
        {
          "indexed": true,
          "internalType": "address",
          "name": "owner",
          "type": "address"
        },
        {
          "indexed": true,
          "internalType": "address",
          "name": "operator",
          "type": "address"
        },
        {
          "indexed": false,
          "internalType": "bool",
          "name": "approved",
          "type": "bool"
        }
      ],
      "name": "ApprovalForAll",
      "type": "event"
    },
    {
      "anonymous": false,
      "inputs": [
        {
          "indexed": false,
          "internalType": "address",
          "name": "locatario",
          "type": "address"
        }
      ],
      "name": "LocatarioAdicionado",
      "type": "event"
    },
    {
      "anonymous": false,
      "inputs": [
        {
          "indexed": false,
          "internalType": "address",
          "name": "locatario",
          "type": "address"
        }
      ],
      "name": "LocatarioRemovido",
      "type": "event"
    },
    {
      "anonymous": false,
      "inputs": [
        {
          "indexed": false,
          "internalType": "address",
          "name": "proprietario",
          "type": "address"
        }
      ],
      "name": "ProprietarioAdicionado",
      "type": "event"
    },
    {
      "anonymous": false,
      "inputs": [
        {
          "indexed": false,
          "internalType": "address",
          "name": "proprietario",
          "type": "address"
        }
      ],
      "name": "ProprietarioRemovido",
      "type": "event"
    },
    {
      "anonymous": false,
      "inputs": [
        {
          "indexed": true,
          "internalType": "bytes32",
          "name": "role",
          "type": "bytes32"
        },
        {
          "indexed": true,
          "internalType": "bytes32",
          "name": "previousAdminRole",
          "type": "bytes32"
        },
        {
          "indexed": true,
          "internalType": "bytes32",
          "name": "newAdminRole",
          "type": "bytes32"
        }
      ],
      "name": "RoleAdminChanged",
      "type": "event"
    },
    {
      "anonymous": false,
      "inputs": [
        {
          "indexed": true,
          "internalType": "bytes32",
          "name": "role",
          "type": "bytes32"
        },
        {
          "indexed": true,
          "internalType": "address",
          "name": "account",
          "type": "address"
        },
        {
          "indexed": true,
          "internalType": "address",
          "name": "sender",
          "type": "address"
        }
      ],
      "name": "RoleGranted",
      "type": "event"
    },
    {
      "anonymous": false,
      "inputs": [
        {
          "indexed": true,
          "internalType": "bytes32",
          "name": "role",
          "type": "bytes32"
        },
        {
          "indexed": true,
          "internalType": "address",
          "name": "account",
          "type": "address"
        },
        {
          "indexed": true,
          "internalType": "address",
          "name": "sender",
          "type": "address"
        }
      ],
      "name": "RoleRevoked",
      "type": "event"
    },
    {
      "anonymous": false,
      "inputs": [
        {
          "indexed": false,
          "internalType": "uint256",
          "name": "novaTaxa",
          "type": "uint256"
        }
      ],
      "name": "TaxaPlataformaDefinida",
      "type": "event"
    },
    {
      "anonymous": false,
      "inputs": [
        {
          "indexed": true,
          "internalType": "address",
          "name": "from",
          "type": "address"
        },
        {
          "indexed": true,
          "internalType": "address",
          "name": "to",
          "type": "address"
        },
        {
          "indexed": true,
          "internalType": "uint256",
          "name": "tokenId",
          "type": "uint256"
        }
      ],
      "name": "Transfer",
      "type": "event"
    },
    {
      "anonymous": false,
      "inputs": [
        {
          "indexed": false,
          "internalType": "address",
          "name": "vistoriador",
          "type": "address"
        }
      ],
      "name": "VistoriadorAdicionado",
      "type": "event"
    },
    {
      "anonymous": false,
      "inputs": [
        {
          "indexed": false,
          "internalType": "address",
          "name": "vistoriador",
          "type": "address"
        }
      ],
      "name": "VistoriadorRemovido",
      "type": "event"
    },
    {
      "inputs": [],
      "name": "ADMIN_ROLE",
      "outputs": [
        {
          "internalType": "bytes32",
          "name": "",
          "type": "bytes32"
        }
      ],
      "stateMutability": "view",
      "type": "function"
    },
    {
      "inputs": [],
      "name": "DEFAULT_ADMIN_ROLE",
      "outputs": [
        {
          "internalType": "bytes32",
          "name": "",
          "type": "bytes32"
        }
      ],
      "stateMutability": "view",
      "type": "function"
    },
    {
      "inputs": [],
      "name": "LOCATARIO_ROLE",
      "outputs": [
        {
          "internalType": "bytes32",
          "name": "",
          "type": "bytes32"
        }
      ],
      "stateMutability": "view",
      "type": "function"
    },
    {
      "inputs": [],
      "name": "PROPRIETARIO_ROLE",
      "outputs": [
        {
          "internalType": "bytes32",
          "name": "",
          "type": "bytes32"
        }
      ],
      "stateMutability": "view",
      "type": "function"
    },
    {
      "inputs": [],
      "name": "VISTORIADOR_ROLE",
      "outputs": [
        {
          "internalType": "bytes32",
          "name": "",
          "type": "bytes32"
        }
      ],
      "stateMutability": "view",
      "type": "function"
    },
    {
      "inputs": [
        {
          "internalType": "address",
          "name": "_locatario",
          "type": "address"
        }
      ],
      "name": "adicionarLocatario",
      "outputs": [],
      "stateMutability": "nonpayable",
      "type": "function"
    },
    {
      "inputs": [
        {
          "internalType": "address",
          "name": "_proprietario",
          "type": "address"
        }
      ],
      "name": "adicionarProprietario",
      "outputs": [],
      "stateMutability": "nonpayable",
      "type": "function"
    },
    {
      "inputs": [
        {
          "internalType": "address",
          "name": "_vistoriador",
          "type": "address"
        }
      ],
      "name": "adicionarVistoriador",
      "outputs": [],
      "stateMutability": "nonpayable",
      "type": "function"
    },
    {
      "inputs": [
        {
          "internalType": "address",
          "name": "to",
          "type": "address"
        },
        {
          "internalType": "uint256",
          "name": "tokenId",
          "type": "uint256"
        }
      ],
      "name": "approve",
      "outputs": [],
      "stateMutability": "nonpayable",
      "type": "function"
    },
    {
      "inputs": [
        {
          "internalType": "address",
          "name": "owner",
          "type": "address"
        }
      ],
      "name": "balanceOf",
      "outputs": [
        {
          "internalType": "uint256",
          "name": "",
          "type": "uint256"
        }
      ],
      "stateMutability": "view",
      "type": "function"
    },
    {
      "inputs": [],
      "name": "constanteTaxaMaxima",
      "outputs": [
        {
          "internalType": "uint256",
          "name": "",
          "type": "uint256"
        }
      ],
      "stateMutability": "view",
      "type": "function"
    },
    {
      "inputs": [
        {
          "internalType": "uint256",
          "name": "_novaTaxa",
          "type": "uint256"
        }
      ],
      "name": "definirTaxaPlataforma",
      "outputs": [],
      "stateMutability": "nonpayable",
      "type": "function"
    },
    {
      "inputs": [
        {
          "internalType": "uint256",
          "name": "tokenId",
          "type": "uint256"
        }
      ],
      "name": "getApproved",
      "outputs": [
        {
          "internalType": "address",
          "name": "",
          "type": "address"
        }
      ],
      "stateMutability": "view",
      "type": "function"
    },
    {
      "inputs": [
        {
          "internalType": "bytes32",
          "name": "role",
          "type": "bytes32"
        }
      ],
      "name": "getRoleAdmin",
      "outputs": [
        {
          "internalType": "bytes32",
          "name": "",
          "type": "bytes32"
        }
      ],
      "stateMutability": "view",
      "type": "function"
    },
    {
      "inputs": [
        {
          "internalType": "bytes32",
          "name": "role",
          "type": "bytes32"
        },
        {
          "internalType": "address",
          "name": "account",
          "type": "address"
        }
      ],
      "name": "grantRole",
      "outputs": [],
      "stateMutability": "nonpayable",
      "type": "function"
    },
    {
      "inputs": [
        {
          "internalType": "bytes32",
          "name": "role",
          "type": "bytes32"
        },
        {
          "internalType": "address",
          "name": "account",
          "type": "address"
        }
      ],
      "name": "hasRole",
      "outputs": [
        {
          "internalType": "bool",
          "name": "",
          "type": "bool"
        }
      ],
      "stateMutability": "view",
      "type": "function"
    },
    {
      "inputs": [
        {
          "internalType": "address",
          "name": "owner",
          "type": "address"
        },
        {
          "internalType": "address",
          "name": "operator",
          "type": "address"
        }
      ],
      "name": "isApprovedForAll",
      "outputs": [
        {
          "internalType": "bool",
          "name": "",
          "type": "bool"
        }
      ],
      "stateMutability": "view",
      "type": "function"
    },
    {
      "inputs": [],
      "name": "name",
      "outputs": [
        {
          "internalType": "string",
          "name": "",
          "type": "string"
        }
      ],
      "stateMutability": "view",
      "type": "function"
    },
    {
      "inputs": [
        {
          "internalType": "uint256",
          "name": "tokenId",
          "type": "uint256"
        }
      ],
      "name": "ownerOf",
      "outputs": [
        {
          "internalType": "address",
          "name": "",
          "type": "address"
        }
      ],
      "stateMutability": "view",
      "type": "function"
    },
    {
      "inputs": [],
      "name": "proximoIdImovel",
      "outputs": [
        {
          "internalType": "uint256",
          "name": "",
          "type": "uint256"
        }
      ],
      "stateMutability": "view",
      "type": "function"
    },
    {
      "inputs": [
        {
          "internalType": "address",
          "name": "_locatario",
          "type": "address"
        }
      ],
      "name": "removerLocatario",
      "outputs": [],
      "stateMutability": "nonpayable",
      "type": "function"
    },
    {
      "inputs": [
        {
          "internalType": "address",
          "name": "_proprietario",
          "type": "address"
        }
      ],
      "name": "removerProprietario",
      "outputs": [],
      "stateMutability": "nonpayable",
      "type": "function"
    },
    {
      "inputs": [
        {
          "internalType": "address",
          "name": "_vistoriador",
          "type": "address"
        }
      ],
      "name": "removerVistoriador",
      "outputs": [],
      "stateMutability": "nonpayable",
      "type": "function"
    },
    {
      "inputs": [
        {
          "internalType": "bytes32",
          "name": "role",
          "type": "bytes32"
        },
        {
          "internalType": "address",
          "name": "callerConfirmation",
          "type": "address"
        }
      ],
      "name": "renounceRole",
      "outputs": [],
      "stateMutability": "nonpayable",
      "type": "function"
    },
    {
      "inputs": [
        {
          "internalType": "bytes32",
          "name": "role",
          "type": "bytes32"
        },
        {
          "internalType": "address",
          "name": "account",
          "type": "address"
        }
      ],
      "name": "revokeRole",
      "outputs": [],
      "stateMutability": "nonpayable",
      "type": "function"
    },
    {
      "inputs": [
        {
          "internalType": "address",
          "name": "from",
          "type": "address"
        },
        {
          "internalType": "address",
          "name": "to",
          "type": "address"
        },
        {
          "internalType": "uint256",
          "name": "tokenId",
          "type": "uint256"
        }
      ],
      "name": "safeTransferFrom",
      "outputs": [],
      "stateMutability": "nonpayable",
      "type": "function"
    },
    {
      "inputs": [
        {
          "internalType": "address",
          "name": "from",
          "type": "address"
        },
        {
          "internalType": "address",
          "name": "to",
          "type": "address"
        },
        {
          "internalType": "uint256",
          "name": "tokenId",
          "type": "uint256"
        },
        {
          "internalType": "bytes",
          "name": "data",
          "type": "bytes"
        }
      ],
      "name": "safeTransferFrom",
      "outputs": [],
      "stateMutability": "nonpayable",
      "type": "function"
    },
    {
      "inputs": [
        {
          "internalType": "address",
          "name": "operator",
          "type": "address"
        },
        {
          "internalType": "bool",
          "name": "approved",
          "type": "bool"
        }
      ],
      "name": "setApprovalForAll",
      "outputs": [],
      "stateMutability": "nonpayable",
      "type": "function"
    },
    {
      "inputs": [
        {
          "internalType": "bytes4",
          "name": "interfaceId",
          "type": "bytes4"
        }
      ],
      "name": "supportsInterface",
      "outputs": [
        {
          "internalType": "bool",
          "name": "",
          "type": "bool"
        }
      ],
      "stateMutability": "view",
      "type": "function"
    },
    {
      "inputs": [],
      "name": "symbol",
      "outputs": [
        {
          "internalType": "string",
          "name": "",
          "type": "string"
        }
      ],
      "stateMutability": "view",
      "type": "function"
    },
    {
      "inputs": [],
      "name": "taxaPlataforma",
      "outputs": [
        {
          "internalType": "uint256",
          "name": "",
          "type": "uint256"
        }
      ],
      "stateMutability": "view",
      "type": "function"
    },
    {
      "inputs": [],
      "name": "token",
      "outputs": [
        {
          "internalType": "contract IERC20",
          "name": "",
          "type": "address"
        }
      ],
      "stateMutability": "view",
      "type": "function"
    },
    {
      "inputs": [
        {
          "internalType": "uint256",
          "name": "tokenId",
          "type": "uint256"
        }
      ],
      "name": "tokenURI",
      "outputs": [
        {
          "internalType": "string",
          "name": "",
          "type": "string"
        }
      ],
      "stateMutability": "view",
      "type": "function"
    },
    {
      "inputs": [
        {
          "internalType": "address",
          "name": "from",
          "type": "address"
        },
        {
          "internalType": "address",
          "name": "to",
          "type": "address"
        },
        {
          "internalType": "uint256",
          "name": "tokenId",
          "type": "uint256"
        }
      ],
      "name": "transferFrom",
      "outputs": [],
      "stateMutability": "nonpayable",
      "type": "function"
    }
  ],
  "bytecode": "0x6080604052600160085560646009556103e8600a5534801561002057600080fd5b506040516136f13803806136f183398181016040528101906100429190610330565b6040518060400160405280600a81526020017f496d6f766569734e4654000000000000000000000000000000000000000000008152506040518060400160405280600381526020017f494d56000000000000000000000000000000000000000000000000000000000081525081600090816100bd91906105ad565b5080600190816100cd91906105ad565b50505080600760006101000a81548173ffffffffffffffffffffffffffffffffffffffff021916908373ffffffffffffffffffffffffffffffffffffffff1602179055506101246000801b3361015c60201b60201c565b506101557fa49807205ce4d355092ef5a8a18f56e8913cf4a201fbe287825b095693c217753361015c60201b60201c565b505061067f565b600061016e838361025a60201b60201c565b61024f5760016006600085815260200190815260200160002060000160008473ffffffffffffffffffffffffffffffffffffffff1673ffffffffffffffffffffffffffffffffffffffff16815260200190815260200160002060006101000a81548160ff0219169083151502179055506101ec6102c560201b60201c565b73ffffffffffffffffffffffffffffffffffffffff168273ffffffffffffffffffffffffffffffffffffffff16847f2f8788117e7eff1d82e926ec794901d17c78024a50270940304540a733656f0d60405160405180910390a460019050610254565b600090505b92915050565b60006006600084815260200190815260200160002060000160008373ffffffffffffffffffffffffffffffffffffffff1673ffffffffffffffffffffffffffffffffffffffff16815260200190815260200160002060009054906101000a900460ff16905092915050565b600033905090565b600080fd5b600073ffffffffffffffffffffffffffffffffffffffff82169050919050565b60006102fd826102d2565b9050919050565b61030d816102f2565b811461031857600080fd5b50565b60008151905061032a81610304565b92915050565b600060208284031215610346576103456102cd565b5b60006103548482850161031b565b91505092915050565b600081519050919050565b7f4e487b7100000000000000000000000000000000000000000000000000000000600052604160045260246000fd5b7f4e487b7100000000000000000000000000000000000000000000000000000000600052602260045260246000fd5b600060028204905060018216806103de57607f821691505b6020821081036103f1576103f0610397565b5b50919050565b60008190508160005260206000209050919050565b60006020601f8301049050919050565b600082821b905092915050565b6000600883026104597fffffffffffffffffffffffffffffffffffffffffffffffffffffffffffffffff8261041c565b610463868361041c565b95508019841693508086168417925050509392505050565b6000819050919050565b6000819050919050565b60006104aa6104a56104a08461047b565b610485565b61047b565b9050919050565b6000819050919050565b6104c48361048f565b6104d86104d0826104b1565b848454610429565b825550505050565b600090565b6104ed6104e0565b6104f88184846104bb565b505050565b5b8181101561051c576105116000826104e5565b6001810190506104fe565b5050565b601f82111561056157610532816103f7565b61053b8461040c565b8101602085101561054a578190505b61055e6105568561040c565b8301826104fd565b50505b505050565b600082821c905092915050565b600061058460001984600802610566565b1980831691505092915050565b600061059d8383610573565b9150826002028217905092915050565b6105b68261035d565b67ffffffffffffffff8111156105cf576105ce610368565b5b6105d982546103c6565b6105e4828285610520565b600060209050601f8311600181146106175760008415610605578287015190505b61060f8582610591565b865550610677565b601f198416610625866103f7565b60005b8281101561064d57848901518255600182019150602085019450602081019050610628565b8683101561066a5784890151610666601f891682610573565b8355505b6001600288020188555050505b505050505050565b6130638061068e6000396000f3fe608060405234801561001057600080fd5b50600436106102065760003560e01c806370a082311161011a578063a75a1c9c116100ad578063c87b56dd1161007c578063c87b56dd146105c1578063d547741f146105f1578063dd15e6af1461060d578063e985e9c51461062b578063fc0c546a1461065b57610206565b8063a75a1c9c1461054f578063b7dacc6d1461056d578063b88d4fde14610589578063bfa7a6a9146105a557610206565b806395d89b41116100e957806395d89b41146104db578063a15985e2146104f9578063a217fddf14610515578063a22cb4651461053357610206565b806370a082311461044157806375b238fc146104715780637615d6811461048f57806391d14854146104ab57610206565b806323b872dd1161019d57806336568abe1161016c57806336568abe1461039d57806338a4bc6d146103b957806342842e0e146103d75780636352211e146103f35780636a1c7bd71461042357610206565b806323b872dd14610319578063248a9ca3146103355780632f2ff15d146103655780632f858cd21461038157610206565b8063081812fc116101d9578063081812fc14610293578063095ea7b3146102c357806311c2735e146102df57806314d6df11146102fb57610206565b80630184e1d01461020b57806301ffc9a7146102275780630533227c1461025757806306fdde0314610275575b600080fd5b61022560048036038101906102209190612403565b610679565b005b610241600480360381019061023c9190612488565b610772565b60405161024e91906124d0565b60405180910390f35b61025f610784565b60405161026c9190612504565b60405180910390f35b61027d61078a565b60405161028a91906125af565b60405180910390f35b6102ad60048036038101906102a891906125fd565b61081c565b6040516102ba9190612639565b60405180910390f35b6102dd60048036038101906102d89190612654565b610838565b005b6102f960048036038101906102f49190612403565b61084e565b005b610303610948565b6040516103109190612504565b60405180910390f35b610333600480360381019061032e9190612694565b61094e565b005b61034f600480360381019061034a919061271d565b610a50565b60405161035c9190612759565b60405180910390f35b61037f600480360381019061037a9190612774565b610a70565b005b61039b60048036038101906103969190612403565b610a92565b005b6103b760048036038101906103b29190612774565b610b8b565b005b6103c1610c06565b6040516103ce9190612759565b60405180910390f35b6103f160048036038101906103ec9190612694565b610c2a565b005b61040d600480360381019061040891906125fd565b610c4a565b60405161041a9190612639565b60405180910390f35b61042b610c5c565b6040516104389190612759565b60405180910390f35b61045b60048036038101906104569190612403565b610c80565b6040516104689190612504565b60405180910390f35b610479610d3a565b6040516104869190612759565b60405180910390f35b6104a960048036038101906104a49190612403565b610d5e565b005b6104c560048036038101906104c09190612774565b610e58565b6040516104d291906124d0565b60405180910390f35b6104e3610ec3565b6040516104f091906125af565b60405180910390f35b610513600480360381019061050e9190612403565b610f55565b005b61051d61104e565b60405161052a9190612759565b60405180910390f35b61054d600480360381019061054891906127e0565b611055565b005b61055761106b565b6040516105649190612504565b60405180910390f35b610587600480360381019061058291906125fd565b611071565b005b6105a3600480360381019061059e9190612955565b611121565b005b6105bf60048036038101906105ba9190612403565b611146565b005b6105db60048036038101906105d691906125fd565b611240565b6040516105e891906125af565b60405180910390f35b61060b60048036038101906106069190612774565b6112a9565b005b6106156112cb565b6040516106229190612759565b60405180910390f35b610645600480360381019061064091906129d8565b6112ef565b60405161065291906124d0565b60405180910390f35b610663611383565b6040516106709190612a77565b60405180910390f35b7fa49807205ce4d355092ef5a8a18f56e8913cf4a201fbe287825b095693c217756106a3816113a9565b6106cd7f14128d59c8a284ac988097bb134e622a4d36f74bffd4d7140787f8393330cbe083610e58565b61070c576040517f08c379a000000000000000000000000000000000000000000000000000000000815260040161070390612ade565b60405180910390fd5b6107367f14128d59c8a284ac988097bb134e622a4d36f74bffd4d7140787f8393330cbe0836113bd565b507f4b6e4af0679de2e9db8ff214585880560720ebe5d4db9da6c2e008b8ce9d9380826040516107669190612639565b60405180910390a15050565b600061077d826114b0565b9050919050565b60095481565b60606000805461079990612b2d565b80601f01602080910402602001604051908101604052809291908181526020018280546107c590612b2d565b80156108125780601f106107e757610100808354040283529160200191610812565b820191906000526020600020905b8154815290600101906020018083116107f557829003601f168201915b5050505050905090565b60006108278261152a565b50610831826115b2565b9050919050565b61084a82826108456115ef565b6115f7565b5050565b7fa49807205ce4d355092ef5a8a18f56e8913cf4a201fbe287825b095693c21775610878816113a9565b6108a27f135dc0521fbdc9e5797cee8780dc42a1c3e433a491bf49aa5308bee7b02d037983610e58565b156108e2576040517f08c379a00000000000000000000000000000000000000000000000000000000081526004016108d990612baa565b60405180910390fd5b61090c7f135dc0521fbdc9e5797cee8780dc42a1c3e433a491bf49aa5308bee7b02d037983611609565b507f0dbddf780af0ce1996f337a48d59ef1207cf01845e1f0c3aecf11f8c0f9fb3be8260405161093c9190612639565b60405180910390a15050565b600a5481565b600073ffffffffffffffffffffffffffffffffffffffff168273ffffffffffffffffffffffffffffffffffffffff16036109c05760006040517f64a0ae920000000000000000000000000000000000000000000000000000000081526004016109b79190612639565b60405180910390fd5b60006109d483836109cf6115ef565b6116fb565b90508373ffffffffffffffffffffffffffffffffffffffff168173ffffffffffffffffffffffffffffffffffffffff1614610a4a578382826040517f64283d7b000000000000000000000000000000000000000000000000000000008152600401610a4193929190612bca565b60405180910390fd5b50505050565b600060066000838152602001908152602001600020600101549050919050565b610a7982610a50565b610a82816113a9565b610a8c8383611609565b50505050565b7fa49807205ce4d355092ef5a8a18f56e8913cf4a201fbe287825b095693c21775610abc816113a9565b610ae67f89bf50abd18337b1a2771381e2d5cb8db745f2d5eb3055dd474d03529ad5f85083610e58565b610b25576040517f08c379a0000000000000000000000000000000000000000000000000000000008152600401610b1c90612c73565b60405180910390fd5b610b4f7f89bf50abd18337b1a2771381e2d5cb8db745f2d5eb3055dd474d03529ad5f850836113bd565b507f76886547f9fe0eea976ff5e24f1445ca80f8bf08579138a6b41afda4f2adb9c682604051610b7f9190612639565b60405180910390a15050565b610b936115ef565b73ffffffffffffffffffffffffffffffffffffffff168173ffffffffffffffffffffffffffffffffffffffff1614610bf7576040517f6697b23200000000000000000000000000000000000000000000000000000000815260040160405180910390fd5b610c0182826113bd565b505050565b7f135dc0521fbdc9e5797cee8780dc42a1c3e433a491bf49aa5308bee7b02d037981565b610c4583838360405180602001604052806000815250611121565b505050565b6000610c558261152a565b9050919050565b7f89bf50abd18337b1a2771381e2d5cb8db745f2d5eb3055dd474d03529ad5f85081565b60008073ffffffffffffffffffffffffffffffffffffffff168273ffffffffffffffffffffffffffffffffffffffff1603610cf35760006040517f89c62b64000000000000000000000000000000000000000000000000000000008152600401610cea9190612639565b60405180910390fd5b600360008373ffffffffffffffffffffffffffffffffffffffff1673ffffffffffffffffffffffffffffffffffffffff168152602001908152602001600020549050919050565b7fa49807205ce4d355092ef5a8a18f56e8913cf4a201fbe287825b095693c2177581565b7fa49807205ce4d355092ef5a8a18f56e8913cf4a201fbe287825b095693c21775610d88816113a9565b610db27f89bf50abd18337b1a2771381e2d5cb8db745f2d5eb3055dd474d03529ad5f85083610e58565b15610df2576040517f08c379a0000000000000000000000000000000000000000000000000000000008152600401610de990612cdf565b60405180910390fd5b610e1c7f89bf50abd18337b1a2771381e2d5cb8db745f2d5eb3055dd474d03529ad5f85083611609565b507f0a09d26398ac9a8c97377e376b76cb1a015f02a8964b28ec226e70729425a92a82604051610e4c9190612639565b60405180910390a15050565b60006006600084815260200190815260200160002060000160008373ffffffffffffffffffffffffffffffffffffffff1673ffffffffffffffffffffffffffffffffffffffff16815260200190815260200160002060009054906101000a900460ff16905092915050565b606060018054610ed290612b2d565b80601f0160208091040260200160405190810160405280929190818152602001828054610efe90612b2d565b8015610f4b5780601f10610f2057610100808354040283529160200191610f4b565b820191906000526020600020905b815481529060010190602001808311610f2e57829003601f168201915b5050505050905090565b7fa49807205ce4d355092ef5a8a18f56e8913cf4a201fbe287825b095693c21775610f7f816113a9565b610fa97f135dc0521fbdc9e5797cee8780dc42a1c3e433a491bf49aa5308bee7b02d037983610e58565b610fe8576040517f08c379a0000000000000000000000000000000000000000000000000000000008152600401610fdf90612d4b565b60405180910390fd5b6110127f135dc0521fbdc9e5797cee8780dc42a1c3e433a491bf49aa5308bee7b02d0379836113bd565b507f21a4c46f1af422eea66367c48e0171807fe498da96adba705aa739bc7d0bcca7826040516110429190612639565b60405180910390a15050565b6000801b81565b6110676110606115ef565b8383611915565b5050565b60085481565b7fa49807205ce4d355092ef5a8a18f56e8913cf4a201fbe287825b095693c2177561109b816113a9565b600a548211156110e0576040517f08c379a00000000000000000000000000000000000000000000000000000000081526004016110d790612ddd565b60405180910390fd5b816009819055507e5ef6ff6fc07558bf305b83811b036750ba05f50484fcbec355c6836af2a6df826040516111159190612504565b60405180910390a15050565b61112c84848461094e565b6111406111376115ef565b85858585611a84565b50505050565b7fa49807205ce4d355092ef5a8a18f56e8913cf4a201fbe287825b095693c21775611170816113a9565b61119a7f14128d59c8a284ac988097bb134e622a4d36f74bffd4d7140787f8393330cbe083610e58565b156111da576040517f08c379a00000000000000000000000000000000000000000000000000000000081526004016111d190612e49565b60405180910390fd5b6112047f14128d59c8a284ac988097bb134e622a4d36f74bffd4d7140787f8393330cbe083611609565b507fb6a9bc85b631b9d7f79fd9cf841f70255b6a39208315e89d8a16b9a02bf0487d826040516112349190612639565b60405180910390a15050565b606061124b8261152a565b506000611256611c35565b9050600081511161127657604051806020016040528060008152506112a1565b8061128084611c4c565b604051602001611291929190612ea5565b6040516020818303038152906040525b915050919050565b6112b282610a50565b6112bb816113a9565b6112c583836113bd565b50505050565b7f14128d59c8a284ac988097bb134e622a4d36f74bffd4d7140787f8393330cbe081565b6000600560008473ffffffffffffffffffffffffffffffffffffffff1673ffffffffffffffffffffffffffffffffffffffff16815260200190815260200160002060008373ffffffffffffffffffffffffffffffffffffffff1673ffffffffffffffffffffffffffffffffffffffff16815260200190815260200160002060009054906101000a900460ff16905092915050565b600760009054906101000a900473ffffffffffffffffffffffffffffffffffffffff1681565b6113ba816113b56115ef565b611d1a565b50565b60006113c98383610e58565b156114a55760006006600085815260200190815260200160002060000160008473ffffffffffffffffffffffffffffffffffffffff1673ffffffffffffffffffffffffffffffffffffffff16815260200190815260200160002060006101000a81548160ff0219169083151502179055506114426115ef565b73ffffffffffffffffffffffffffffffffffffffff168273ffffffffffffffffffffffffffffffffffffffff16847ff6391f5c32d9c69d2a47ea670b442974b53935d1edc7fd64eb21e047a839171b60405160405180910390a4600190506114aa565b600090505b92915050565b60007f7965db0b000000000000000000000000000000000000000000000000000000007bffffffffffffffffffffffffffffffffffffffffffffffffffffffff1916827bffffffffffffffffffffffffffffffffffffffffffffffffffffffff19161480611523575061152282611d6b565b5b9050919050565b60008061153683611e4d565b9050600073ffffffffffffffffffffffffffffffffffffffff168173ffffffffffffffffffffffffffffffffffffffff16036115a957826040517f7e2732890000000000000000000000000000000000000000000000000000000081526004016115a09190612504565b60405180910390fd5b80915050919050565b60006004600083815260200190815260200160002060009054906101000a900473ffffffffffffffffffffffffffffffffffffffff169050919050565b600033905090565b6116048383836001611e8a565b505050565b60006116158383610e58565b6116f05760016006600085815260200190815260200160002060000160008473ffffffffffffffffffffffffffffffffffffffff1673ffffffffffffffffffffffffffffffffffffffff16815260200190815260200160002060006101000a81548160ff02191690831515021790555061168d6115ef565b73ffffffffffffffffffffffffffffffffffffffff168273ffffffffffffffffffffffffffffffffffffffff16847f2f8788117e7eff1d82e926ec794901d17c78024a50270940304540a733656f0d60405160405180910390a4600190506116f5565b600090505b92915050565b60008061170784611e4d565b9050600073ffffffffffffffffffffffffffffffffffffffff168373ffffffffffffffffffffffffffffffffffffffff16146117495761174881848661204f565b5b600073ffffffffffffffffffffffffffffffffffffffff168173ffffffffffffffffffffffffffffffffffffffff16146117da5761178b600085600080611e8a565b6001600360008373ffffffffffffffffffffffffffffffffffffffff1673ffffffffffffffffffffffffffffffffffffffff168152602001908152602001600020600082825403925050819055505b600073ffffffffffffffffffffffffffffffffffffffff168573ffffffffffffffffffffffffffffffffffffffff161461185d576001600360008773ffffffffffffffffffffffffffffffffffffffff1673ffffffffffffffffffffffffffffffffffffffff168152602001908152602001600020600082825401925050819055505b846002600086815260200190815260200160002060006101000a81548173ffffffffffffffffffffffffffffffffffffffff021916908373ffffffffffffffffffffffffffffffffffffffff160217905550838573ffffffffffffffffffffffffffffffffffffffff168273ffffffffffffffffffffffffffffffffffffffff167fddf252ad1be2c89b69c2b068fc378daa952ba7f163c4a11628f55a4df523b3ef60405160405180910390a4809150509392505050565b600073ffffffffffffffffffffffffffffffffffffffff168273ffffffffffffffffffffffffffffffffffffffff160361198657816040517f5b08ba1800000000000000000000000000000000000000000000000000000000815260040161197d9190612639565b60405180910390fd5b80600560008573ffffffffffffffffffffffffffffffffffffffff1673ffffffffffffffffffffffffffffffffffffffff16815260200190815260200160002060008473ffffffffffffffffffffffffffffffffffffffff1673ffffffffffffffffffffffffffffffffffffffff16815260200190815260200160002060006101000a81548160ff0219169083151502179055508173ffffffffffffffffffffffffffffffffffffffff168373ffffffffffffffffffffffffffffffffffffffff167f17307eab39ab6107e8899845ad3d59bd9653f200f220920489ca2b5937696c3183604051611a7791906124d0565b60405180910390a3505050565b60008373ffffffffffffffffffffffffffffffffffffffff163b1115611c2e578273ffffffffffffffffffffffffffffffffffffffff1663150b7a02868685856040518563ffffffff1660e01b8152600401611ae39493929190612f1e565b6020604051808303816000875af1925050508015611b1f57506040513d601f19601f82011682018060405250810190611b1c9190612f7f565b60015b611ba3573d8060008114611b4f576040519150601f19603f3d011682016040523d82523d6000602084013e611b54565b606091505b506000815103611b9b57836040517f64a0ae92000000000000000000000000000000000000000000000000000000008152600401611b929190612639565b60405180910390fd5b805181602001fd5b63150b7a0260e01b7bffffffffffffffffffffffffffffffffffffffffffffffffffffffff1916817bffffffffffffffffffffffffffffffffffffffffffffffffffffffff191614611c2c57836040517f64a0ae92000000000000000000000000000000000000000000000000000000008152600401611c239190612639565b60405180910390fd5b505b5050505050565b606060405180602001604052806000815250905090565b606060006001611c5b84612113565b01905060008167ffffffffffffffff811115611c7a57611c7961282a565b5b6040519080825280601f01601f191660200182016040528015611cac5781602001600182028036833780820191505090505b509050600082602001820190505b600115611d0f578080600190039150507f3031323334353637383961626364656600000000000000000000000000000000600a86061a8153600a8581611d0357611d02612fac565b5b04945060008503611cba575b819350505050919050565b611d248282610e58565b611d675780826040517fe2517d3f000000000000000000000000000000000000000000000000000000008152600401611d5e929190612fdb565b60405180910390fd5b5050565b60007f80ac58cd000000000000000000000000000000000000000000000000000000007bffffffffffffffffffffffffffffffffffffffffffffffffffffffff1916827bffffffffffffffffffffffffffffffffffffffffffffffffffffffff19161480611e3657507f5b5e139f000000000000000000000000000000000000000000000000000000007bffffffffffffffffffffffffffffffffffffffffffffffffffffffff1916827bffffffffffffffffffffffffffffffffffffffffffffffffffffffff1916145b80611e465750611e4582612266565b5b9050919050565b60006002600083815260200190815260200160002060009054906101000a900473ffffffffffffffffffffffffffffffffffffffff169050919050565b8080611ec35750600073ffffffffffffffffffffffffffffffffffffffff168273ffffffffffffffffffffffffffffffffffffffff1614155b15611ff7576000611ed38461152a565b9050600073ffffffffffffffffffffffffffffffffffffffff168373ffffffffffffffffffffffffffffffffffffffff1614158015611f3e57508273ffffffffffffffffffffffffffffffffffffffff168173ffffffffffffffffffffffffffffffffffffffff1614155b8015611f515750611f4f81846112ef565b155b15611f9357826040517fa9fbf51f000000000000000000000000000000000000000000000000000000008152600401611f8a9190612639565b60405180910390fd5b8115611ff557838573ffffffffffffffffffffffffffffffffffffffff168273ffffffffffffffffffffffffffffffffffffffff167f8c5be1e5ebec7d5bd14f71427d1e84f3dd0314c0f7b2291e5b200ac8c7c3b92560405160405180910390a45b505b836004600085815260200190815260200160002060006101000a81548173ffffffffffffffffffffffffffffffffffffffff021916908373ffffffffffffffffffffffffffffffffffffffff16021790555050505050565b61205a8383836122d0565b61210e57600073ffffffffffffffffffffffffffffffffffffffff168373ffffffffffffffffffffffffffffffffffffffff16036120cf57806040517f7e2732890000000000000000000000000000000000000000000000000000000081526004016120c69190612504565b60405180910390fd5b81816040517f177e802f000000000000000000000000000000000000000000000000000000008152600401612105929190613004565b60405180910390fd5b505050565b600080600090507a184f03e93ff9f4daa797ed6e38ed64bf6a1f0100000000000000008310612171577a184f03e93ff9f4daa797ed6e38ed64bf6a1f010000000000000000838161216757612166612fac565b5b0492506040810190505b6d04ee2d6d415b85acef810000000083106121ae576d04ee2d6d415b85acef810000000083816121a4576121a3612fac565b5b0492506020810190505b662386f26fc1000083106121dd57662386f26fc1000083816121d3576121d2612fac565b5b0492506010810190505b6305f5e1008310612206576305f5e10083816121fc576121fb612fac565b5b0492506008810190505b612710831061222b57612710838161222157612220612fac565b5b0492506004810190505b6064831061224e576064838161224457612243612fac565b5b0492506002810190505b600a831061225d576001810190505b80915050919050565b60007f01ffc9a7000000000000000000000000000000000000000000000000000000007bffffffffffffffffffffffffffffffffffffffffffffffffffffffff1916827bffffffffffffffffffffffffffffffffffffffffffffffffffffffff1916149050919050565b60008073ffffffffffffffffffffffffffffffffffffffff168373ffffffffffffffffffffffffffffffffffffffff161415801561238857508273ffffffffffffffffffffffffffffffffffffffff168473ffffffffffffffffffffffffffffffffffffffff161480612349575061234884846112ef565b5b8061238757508273ffffffffffffffffffffffffffffffffffffffff1661236f836115b2565b73ffffffffffffffffffffffffffffffffffffffff16145b5b90509392505050565b6000604051905090565b600080fd5b600080fd5b600073ffffffffffffffffffffffffffffffffffffffff82169050919050565b60006123d0826123a5565b9050919050565b6123e0816123c5565b81146123eb57600080fd5b50565b6000813590506123fd816123d7565b92915050565b6000602082840312156124195761241861239b565b5b6000612427848285016123ee565b91505092915050565b60007fffffffff0000000000000000000000000000000000000000000000000000000082169050919050565b61246581612430565b811461247057600080fd5b50565b6000813590506124828161245c565b92915050565b60006020828403121561249e5761249d61239b565b5b60006124ac84828501612473565b91505092915050565b60008115159050919050565b6124ca816124b5565b82525050565b60006020820190506124e560008301846124c1565b92915050565b6000819050919050565b6124fe816124eb565b82525050565b600060208201905061251960008301846124f5565b92915050565b600081519050919050565b600082825260208201905092915050565b60005b8381101561255957808201518184015260208101905061253e565b60008484015250505050565b6000601f19601f8301169050919050565b60006125818261251f565b61258b818561252a565b935061259b81856020860161253b565b6125a481612565565b840191505092915050565b600060208201905081810360008301526125c98184612576565b905092915050565b6125da816124eb565b81146125e557600080fd5b50565b6000813590506125f7816125d1565b92915050565b6000602082840312156126135761261261239b565b5b6000612621848285016125e8565b91505092915050565b612633816123c5565b82525050565b600060208201905061264e600083018461262a565b92915050565b6000806040838503121561266b5761266a61239b565b5b6000612679858286016123ee565b925050602061268a858286016125e8565b9150509250929050565b6000806000606084860312156126ad576126ac61239b565b5b60006126bb868287016123ee565b93505060206126cc868287016123ee565b92505060406126dd868287016125e8565b9150509250925092565b6000819050919050565b6126fa816126e7565b811461270557600080fd5b50565b600081359050612717816126f1565b92915050565b6000602082840312156127335761273261239b565b5b600061274184828501612708565b91505092915050565b612753816126e7565b82525050565b600060208201905061276e600083018461274a565b92915050565b6000806040838503121561278b5761278a61239b565b5b600061279985828601612708565b92505060206127aa858286016123ee565b9150509250929050565b6127bd816124b5565b81146127c857600080fd5b50565b6000813590506127da816127b4565b92915050565b600080604083850312156127f7576127f661239b565b5b6000612805858286016123ee565b9250506020612816858286016127cb565b9150509250929050565b600080fd5b600080fd5b7f4e487b7100000000000000000000000000000000000000000000000000000000600052604160045260246000fd5b61286282612565565b810181811067ffffffffffffffff821117156128815761288061282a565b5b80604052505050565b6000612894612391565b90506128a08282612859565b919050565b600067ffffffffffffffff8211156128c0576128bf61282a565b5b6128c982612565565b9050602081019050919050565b82818337600083830152505050565b60006128f86128f3846128a5565b61288a565b90508281526020810184848401111561291457612913612825565b5b61291f8482856128d6565b509392505050565b600082601f83011261293c5761293b612820565b5b813561294c8482602086016128e5565b91505092915050565b6000806000806080858703121561296f5761296e61239b565b5b600061297d878288016123ee565b945050602061298e878288016123ee565b935050604061299f878288016125e8565b925050606085013567ffffffffffffffff8111156129c0576129bf6123a0565b5b6129cc87828801612927565b91505092959194509250565b600080604083850312156129ef576129ee61239b565b5b60006129fd858286016123ee565b9250506020612a0e858286016123ee565b9150509250929050565b6000819050919050565b6000612a3d612a38612a33846123a5565b612a18565b6123a5565b9050919050565b6000612a4f82612a22565b9050919050565b6000612a6182612a44565b9050919050565b612a7181612a56565b82525050565b6000602082019050612a8c6000830184612a68565b92915050565b7f4f20656e64657265636f206e616f206520756d206c6f6361746172696f2e0000600082015250565b6000612ac8601e8361252a565b9150612ad382612a92565b602082019050919050565b60006020820190508181036000830152612af781612abb565b9050919050565b7f4e487b7100000000000000000000000000000000000000000000000000000000600052602260045260246000fd5b60006002820490506001821680612b4557607f821691505b602082108103612b5857612b57612afe565b5b50919050565b7f4f20766973746f726961646f72206a6120646566696e69646f00000000000000600082015250565b6000612b9460198361252a565b9150612b9f82612b5e565b602082019050919050565b60006020820190508181036000830152612bc381612b87565b9050919050565b6000606082019050612bdf600083018661262a565b612bec60208301856124f5565b612bf9604083018461262a565b949350505050565b7f4f20656e64657265636f206e616f206520756d2070726f70726965746172696f60008201527f2e00000000000000000000000000000000000000000000000000000000000000602082015250565b6000612c5d60218361252a565b9150612c6882612c01565b604082019050919050565b60006020820190508181036000830152612c8c81612c50565b9050919050565b7f70726f70726965746172696f206a6120646566696e69646f0000000000000000600082015250565b6000612cc960188361252a565b9150612cd482612c93565b602082019050919050565b60006020820190508181036000830152612cf881612cbc565b9050919050565b7f4f20656e64657265636f206e616f206520756d20766973746f726961646f722e600082015250565b6000612d3560208361252a565b9150612d4082612cff565b602082019050919050565b60006020820190508181036000830152612d6481612d28565b9050919050565b7f54617861206e616f20706f64652065786365646572206f206c696d697465206d60008201527f6178696d6f206465203130250000000000000000000000000000000000000000602082015250565b6000612dc7602c8361252a565b9150612dd282612d6b565b604082019050919050565b60006020820190508181036000830152612df681612dba565b9050919050565b7f4f206c6f6361746172696f206a6120646566696e69646f000000000000000000600082015250565b6000612e3360178361252a565b9150612e3e82612dfd565b602082019050919050565b60006020820190508181036000830152612e6281612e26565b9050919050565b600081905092915050565b6000612e7f8261251f565b612e898185612e69565b9350612e9981856020860161253b565b80840191505092915050565b6000612eb18285612e74565b9150612ebd8284612e74565b91508190509392505050565b600081519050919050565b600082825260208201905092915050565b6000612ef082612ec9565b612efa8185612ed4565b9350612f0a81856020860161253b565b612f1381612565565b840191505092915050565b6000608082019050612f33600083018761262a565b612f40602083018661262a565b612f4d60408301856124f5565b8181036060830152612f5f8184612ee5565b905095945050505050565b600081519050612f798161245c565b92915050565b600060208284031215612f9557612f9461239b565b5b6000612fa384828501612f6a565b91505092915050565b7f4e487b7100000000000000000000000000000000000000000000000000000000600052601260045260246000fd5b6000604082019050612ff0600083018561262a565b612ffd602083018461274a565b9392505050565b6000604082019050613019600083018561262a565b61302660208301846124f5565b939250505056fea26469706673582212206bf67f52ae3ccf437f2f8266a24f7418b8d018806d81a461ceb5dadc72a448bd64736f6c634300081c0033",
  "linkReferences": {},
  "deployedLinkReferences": {}
}